:020000023000CC
:10E000000D94B2F10D94DCF10D94DCF10D94DCF182
:10E010000D94DCF10D94DCF10D94DCF10D94DCF148
:10E020000D94DCF10D94DCF10D94DCF10D94DCF138
:10E030000D94DCF10D94DCF10D94DCF10D94DCF128
:10E040000D94DCF10D94DCF10D94DCF10D94DCF118
:10E050000D94DCF10D94DCF10D94DCF10D94DCF108
:10E060000D94DCF10D94DCF10D94DCF10D94DCF1F8
:10E070000D94DCF10D94DCF10D94DCF10D94DCF1E8
:10E080000D94DCF10D94DCF10D94DCF10D94DCF1D8
:10E090000D94DCF10D94DCF10D94DCF10D94DCF1C8
:10E0A0000D94DCF10D94DCF10D94DCF10D94DCF1B8
:10E0B0000D94DCF10D94DCF10D94DCF10D94DCF1A8
:10E0C0000D94DCF10D94DCF10D94DCF10D94DCF198
:10E0D0000D94DCF10D94DCF10D94DCF10D94DCF188
:10E0E0000D94DCF10D94DCF10D94DCF10D94DCF178
:10E0F0000D94DCF10D94DCF10D94DCF10D94DCF168
:10E100000D94DCF10D94DCF10D94DCF10D94DCF157
:10E110000D94DCF10D94DCF10D94DCF10D94DCF147
:10E120000D94DCF10D94DCF10D94DCF10D94DCF137
:10E130000D94DCF12A00593D506F727420626C69B5
:10E140006E6B00563D73686F7720696E74657272EE
:10E1500075707420566563746F727300523D447518
:10E160006D702052414D00513D51756974004C3D18
:10E170004C69737420492F4F20506F72747300489C
:10E180003D48656C7000463D44756D7020464C41BD
:10E19000534800453D44756D7020454550524F4DE4
:10E1A00000423D426C696E6B204C454400403D4549
:10E1B0004550524F4D2074657374003F3D43505598
:10E1C00020737461747300303D5A65726F2061640E
:10E1D000647200504F5254004545206572722063AE
:10E1E0006E743D0052656164696E67204545005755
:10E1F00072697474696E672045450020004D75731F
:10E20000742062652061206C657474657200506FC3
:10E210007274206E6F7420737570706F72746564A1
:10E22000005768617420706F72743A006A6D7020D4
:10E2300000726A6D702020006E6F20766563746FC7
:10E2400072005623202020414444522020206F7029
:10E2500020636F64652020202020696E73747275BE
:10E260006374696F6E2061646472202020496E744B
:10E2700065727275707400342E362E3200312E386D
:10E280002E30004170722031392032303133004C51
:10E290006F636B20667573652020203D20004578F4
:10E2A000742066757365202020203D200048696732
:10E2B0006820667573652020203D20004C6F772014
:10E2C00066757365202020203D200043505520496D
:10E2D000442020202020203D200047434320566535
:10E2E0007273696F6E203D2000415652204C696266
:10E2F00043205665723D20005F5F4156525F415298
:10E3000043485F5F3D20004350552054797065209D
:10E310002020203D2000436F6D70696C6564206F84
:10E320006E203D20004875683F00426F6F746C6F2F
:10E33000616465723E0041726475696E6F20657834
:10E34000706C6F7265722073746B3530305632208A
:10E350006279204D4C530041546D656761323552EE
:10E360004652320011241FBECFEFD1E8DEBFCDBF31
:10E3700001E00CBF12E0A0E0B2E0E8E9F8EF03E052
:10E380000BBF02C007900D92A430B107D9F71BBE96
:10E3900012E0A4E0B2E001C01D92A231B107E1F7A2
:10E3A0000F9420F30D944AFC01E80EBF0FEF0DBF50
:10E3B00011241FBE0D9420F30D9400F08093C6002D
:10E3C0008091C00086FFFCCF8091C0008064809364
:10E3D000C000089520E030E008C0EFECF7E031978E
:10E3E000F1F700C000002F5F3F4F28173907A9F74A
:10E3F0000895CF93DF93EC01C60FD11DCE01A0E0AD
:10E40000B0E02196ABBFFC018791882319F00F94EF
:10E41000DEF1F4CFDF91CF9108958DE00F94DEF11E
:10E420008AE00F94DEF108950F94F9F10F940DF244
:10E430000895CF93DF93EC018991882319F00F940D
:10E44000DEF1FACFDF91CF910895CF93C82F982FA7
:10E4500092959F70892F805D8A3308F0895F0F94B1
:10E46000DEF1CF708C2F805D8A3308F0895F0F94C6
:10E47000DEF1CF9108950F931F93CF93DF93EC01BB
:10E480008B01853691051CF4633071054CF0CE018B
:10E4900064E670E00F94EBFB862F805D0F94DEF155
:10E4A000CB30D1051CF4023011056CF0CE0164E6CE
:10E4B00070E00F94EBFB6AE070E00F94EBFB862FAB
:10E4C000805D0F94DEF1CE016AE070E00F94EBFB0B
:10E4D000805D0F94DEF1DF91CF911F910F91089530
:10E4E0008091C00087FFFCCF8091C6000895CF9334
:10E4F000C82F83ED91EE60E00F94F9F18C2F0F940B
:10E50000DEF10F940DF2CF9108953F924F925F92FA
:10E510006F927F928F929F92AF92BF92CF92DF9233
:10E52000EF92FF920F931F93CF93DF93CDB7DEB798
:10E5300062970FB6F894DEBF0FBECDBF582E6A01AA
:10E540007B0110E144248EE2382E81E0C81680E081
:10E55000D80681E0E80680E0F80618F08E2D0F94CA
:10E5600025F28D2D0F9425F28C2D0F9425F280E24B
:10E570000F94DEF18DE20F94DEF180E20F94DEF174
:10E5800019823E010894611C711C4601570100E18B
:10E5900091E0591651F0591620F0A2E05A1661F494
:10E5A00009C0ABBEF401479007C0C4010F9434FC0E
:10E5B000482E02C0F4014080842D0F9425F280E2A1
:10E5C0000F94DEF1842D80528F3518F4F3014082D0
:10E5D00002C0D3013C920894811C911CA11CB11C67
:10E5E00001500894611C711C002391F680E190E0B9
:10E5F000A0E0B0E0C80ED91EEA1EFB1E198ACE01AB
:10E6000001960F9419F20F940DF2115009F09DCF5D
:10E6100062960FB6F894DEBF0FBECDBFDF91CF91EB
:10E620001F910F91FF90EF90DF90CF90BF90AF9030
:10E630009F908F907F906F905F904F903F90089544
:10E64000CF93DF93CDB7DEB7C054D1400FB6F89467
:10E65000DEBF0FBECDBF01E80EBF0FEF0DBF94B7F9
:10E66000F894A89514BE8091600088618093600042
:10E6700010926000789493FF05C0E0910402F0913D
:10E6800005021995579A5F9A80E18093C40088E14A
:10E690008093C1000000CC24DD247601A7EC8A2EF3
:10E6A000ABE19A2EA12CB12C00E010E025C025E0B2
:10E6B0002A95F1F700000894C11CD11CE11CF11C43
:10E6C00001E010E031E2C3163EE4D30630E0E30699
:10E6D00030E0F30610F400E010E0C701B601A50138
:10E6E00094010F94FEFBDC01CB010097A105B1055D
:10E6F00019F48BB180588BB98091C00087FD03C09D
:10E7000001151105A1F2C80101968130910511F0A2
:10E710000D94CCFB0D9487FB80E090E08130910557
:10E72000C9F41FC00196A11DB11D8130E2E19E0711
:10E73000EAE7AE07E0E0BE0780F0C15CDE4F88810B
:10E740009981CF53D140AFEF8F3F9A0719F0EE2751
:10E75000FF27099480E090E0DC013091C00037FF92
:10E76000E1CF3091C6000894E11CF11C313209F070
:10E77000D3C4BAE0EB16F10408F0CEC46F5F7F4F4C
:10E780006330710509F0CAC40FC081E20F94DEF155
:10E7900001501040D1F70F940DF20894E108F108F0
:10E7A000E114F10481F412C0C95DDE4F19830883BE
:10E7B000C752D140C75DDE4FF982E882C952D140CD
:10E7C000F5E0EF2EF12C09E110E0DFCF10920E0200
:10E7D00010920F02109210021092110210920A026F
:10E7E00010920B0210920C0210920D02109206026F
:10E7F00010920702109208021092090286E393EE2B
:10E8000060E00F9414F28AE293EE60E00F94F9F165
:10E810000F9470F2182F803608F01F75103230F008
:10E82000812F0F94DEF180E20F94DEF1183409F4A9
:10E83000B5C11934B8F4123409F446C1133458F48C
:10E84000103319F1103308F464C41F33A1F11034EC
:10E8500009F05FC4B9C0153409F44DC1163409F08C
:10E8600058C477C1123509F4FDC1133538F41C348E
:10E8700009F4D3C1113509F04CC4EAC1163509F4C5
:10E8800016C2193509F045C49CC387EC91EE62E0CD
:10E890000F9414F210920A0210920B0210920C02C2
:10E8A00010920D0210920E0210920F02109210029E
:10E8B0001092110200C18BEB91EE62E00F9414F202
:10E8C00086E393EE60E00F9414F286E193EE60E04D
:10E8D0000F94F9F183E892EE60E00F9414F287E070
:10E8E00093EE60E00F94F9F187E593EE60E00F940A
:10E8F00014F288EF92EE60E00F94F9F186E090E078
:10E9000061E070E00F943BF20F940DF28AED92EE0D
:10E9100060E00F94F9F187E792EE60E00F9414F253
:10E9200089EE92EE60E00F94F9F18DE792EE60E0EF
:10E930000F9414F28BEC92EE60E00F94F9F18EE1FB
:10E940000F9425F288EA0F9425F282E00F9425F2C5
:10E950000F940DF28CEB92EE60E00F94F9F119E058
:10E96000E0E0F0E01093570084910F9425F20F94AB
:10E970000DF28DEA92EE60E00F94F9F1E3E0F0E041
:10E980001093570084910F9425F20F940DF28EE9A5
:10E9900092EE60E00F94F9F1E2E0F0E0109357009E
:10E9A00084910F9425F20F940DF28FE892EE60E0BF
:10E9B0000F94F9F1E1E0F0E01093570084910F9487
:10E9C00025F20F940DF21FCF8DEA91EE62E00F94C5
:10E9D00014F28FEE91EE60E00F9414F20F940DF2AA
:10E9E000EE24FF2412C0C701612F0F943CFC1123B9
:10E9F00031F48BEF91EE60E00F94F9F103C0812FB9
:10EA00000F94DEF10894E11CF11CC7018A5C9C4163
:10EA1000A0E0B0E0ABBFFC0117911A3229F0E0E0B2
:10EA2000EE16E2E0FE06F9F60F940DF20F940DF2E9
:10EA300084EE91EE60E00F9414F20F940DF2CC246A
:10EA4000DD24EE24FF2416C0C7010F9434FC182FD8
:10EA5000882331F48BEF91EE60E00F94F9F102C05E
:10EA60000F94DEF1101719F00894C11CD11C089402
:10EA7000E11CF11C87010A5C1C4120E030E02BBF47
:10EA8000F80107910A3229F0F0E0EF16F2E0FF06F4
:10EA9000D9F60F940DF20F940DF288ED91EE60E02F
:10EAA0000F94F9F1C60161E070E00F943BF20F940E
:10EAB0000DF20F940DF210920602109207021092BE
:10EAC0000802109209029FCE81EA91EE62E00F9453
:10EAD00014F2579A5F9A0AC05F9884E690E00F9408
:10EAE000EAF15F9A84E690E00F94EAF18091C00029
:10EAF00087FFF2CF08C383E991EE62E00F9414F22E
:10EB0000409106025091070260910802709109023B
:10EB100081E00F9485F28091060290910702A09106
:10EB20000802B091090280509F4FAF4FBF4F8093B2
:10EB3000060290930702A0930802B0930902803066
:10EB400020E2920720E0A20720E0B20708F45BCEA3
:10EB5000B2CF86E891EE62E00F9414F240910A027F
:10EB600050910B0260910C0270910D0280E00F94A5
:10EB700085F280910A0290910B02A0910C02B09153
:10EB80000D0280509F4FAF4FBF4F80930A0290936A
:10EB90000B02A0930C02B0930D0235CE8FE791EEDD
:10EBA00062E00F9414F287EC91EE60E00F9414F29F
:10EBB0008BEB91EE60E00F9414F28DEA91EE60E041
:10EBC0000F9414F281EA91EE60E00F9414F283E95D
:10EBD00091EE60E00F9414F286E891EE60E00F94FD
:10EBE00014F28FE791EE60E00F9414F28EE691EE4E
:10EBF00060E00F9414F287E691EE60E00F9414F257
:10EC00008CE591EE60E00F9414F283E491EE60E005
:10EC10000F9414F286E391EEF3CD8EE691EE62E06E
:10EC20000F9414F281E40F9477F282E40F9477F258
:10EC300083E40F9477F284E40F9477F285E40F94E1
:10EC400077F286E40F9477F287E40F9477F2DBCDC6
:10EC500087E691EE62E00F9414F2222433244424D8
:10EC60004394B0C28CE591EE62E00F9414F24091AF
:10EC70000E0250910F02609110027091110282E019
:10EC80000F9485F280910E0290910F02A0911002D4
:10EC9000B091110280509F4FAF4FBF4F80930E0233
:10ECA00090930F02A0931002B0931102ACCD83E4B5
:10ECB00091EE62E00F9414F287E593EE60E00F941A
:10ECC00014F282E492EE60E00F9414F2C55DDE4F20
:10ECD00019821882CB52D140442455243201B30109
:10ECE000A2017695679557954795CF5CDE4F48838F
:10ECF00059836A837B83C153D140C55DDE4F288130
:10ED00003981CB52D1402F5F3F4FC55DDE4F3983F4
:10ED10002883CB52D140C90162E070E00F943BF2EE
:10ED200080E20F94DEF18DE20F94DEF180E20F9429
:10ED3000DEF180E00F9425F2CF5CDE4F8881C15375
:10ED4000D1400F9425F280E20F94DEF18DE30F9411
:10ED5000DEF180E20F94DEF16BBEF2018790482D68
:10ED600050E060E070E0C35DDE4F488359836A8302
:10ED70007B83CD52D140D301C2010196A11DB11DAB
:10ED8000ABBFFC018791282F30E040E050E0CB5C26
:10ED9000DE4F288339834A835B83C553D140930177
:10EDA00082010D5F1F4F2F4F3F4FB301A2014E5FF6
:10EDB0005F4F6F4F7F4F6BBFFA01379044E050E0D9
:10EDC00060E070E0440E551E661E771E2BBFF801F2
:10EDD0001791CB5CDE4F288139814A815B81C55315
:10EDE000D140CC24D22EE32EF42EC35DDE4F4881D9
:10EDF00059816A817B81CD52D140C40ED51EE61E59
:10EE0000F71E0F9425F280E20F94DEF1882D0F9407
:10EE100025F280E20F94DEF1812F0F9425F280E23B
:10EE20000F94DEF1832D0F9425F280E20F94DEF132
:10EE30005FEFC5165FEFD50650E0E50650E0F5063A
:10EE400031F488E392EE60E00F94F9F1ADC0D701A0
:10EE5000C6018070907CA070B070803060EC960726
:10EE600060E0A60760E0B60701F57FEF872E7FE33D
:10EE7000972EA12CB12C8C209D20AE20BF20CF5CE2
:10EE8000DE4FC880D980EA80FB80C153D140C80CD6
:10EE9000D91CEA1CFB1CCC0CDD1CEE1CFF1C81E306
:10EEA00092EE60E00F94F9F16AC0D701C6018E704E
:10EEB0009E7FA070B0708C3074E9970770E0A70750
:10EEC00070E0B70709F070C0812F90E0A0E0B0E0DB
:10EED0008824982EA92EBA2E830C911CA11CB11C3B
:10EEE000C35DDE4F88819981AA81BB81CD52D1401B
:10EEF00081709070A070B070DC0199278827880E0F
:10EF0000991EAA1EBB1EC35DDE4F88819981AA810E
:10EF1000BB81CD52D140807F9070A070B07041E134
:10EF2000880F991FAA1FBB1F4A95D1F7880E991EFB
:10EF3000AA1EBB1ECB5CDE4F88819981AA81BB8152
:10EF4000C553D14081709070A070B07055E1880FAA
:10EF5000991FAA1FBB1F5A95D1F7880E991EAA1E8A
:10EF6000BB1E75016401CC0CDD1CEE1CFF1C8CE289
:10EF700092EE60E00F94F9F18A2D0F9425F2892D1D
:10EF80000F9425F2882D0F9425F280E20F94DEF184
:10EF90008EE30F94DEF18E2D0F9425F28D2D0F94BC
:10EFA00025F28C2D0F9425F20F940DF2C55DDE4FE6
:10EFB00028813981CB52D1402D34310509F08FCED3
:10EFC00022CC86E391EE62E00F9414F281E292EE9D
:10EFD00060E00F94F9F10F9470F2182F1F75812FD4
:10EFE0000F94DEF10F940DF2812F81548A3108F0D5
:10EFF0008DC0143409F444C0153440F4123401F1C6
:10F00000133470F5113409F07BC00AC0163409F4CA
:10F0100057C0163408F444C0173409F071C060C0FA
:10F020008FEF81B907C082B1809582B988EC90E0FA
:10F030000F94EAF18091C00087FFF5CF12B863C04A
:10F040008FEF84B907C085B1809585B988EC90E0D1
:10F050000F94EAF18091C00087FFF5CF15B853C037
:10F060008FEF87B907C088B1809588B988EC90E0A8
:10F070000F94EAF18091C00087FFF5CF18B843C024
:10F080008FEF8AB907C08BB180958BB988EC90E07F
:10F090000F94EAF18091C00087FFF5CF1BB833C011
:10F0A0008FEF8DB907C08EB180958EB988EC90E056
:10F0B0000F94EAF18091C00087FFF5CF1EB823C0FE
:10F0C0008FEF80BB07C081B3809581BB88EC90E057
:10F0D0000F94EAF18091C00087FFF5CF11BA13C0F9
:10F0E0008FEF83BB07C084B3809584BB88EC90E02E
:10F0F0000F94EAF18091C00087FFF5CF14BA03C0E6
:10F100008EE092EE7DCB0F9470F27DCB8DEF91EE81
:10F1100077CB85E293EE74CB60E070E02330F9F0BA
:10F12000243028F4213071F02230A0F407C02530BB
:10F1300029F12530D8F02630A1F52FC03B3109F058
:10F14000EBCA3EC3C326CA5DDE4F3883C652D140E8
:10F1500022E0E2CA532F40E0C32623E0DDCA832F1A
:10F1600090E0482B592BC32624E0D6CA3E3009F044
:10F170002CC3C32600E010E025E0CECAE1E0F0E0B9
:10F18000EC0FFD1FE00FF11F30830F5F1F4FC326F1
:10F190000417150709F0C0CA1BC33C1509F015C3B5
:10F1A00003C0273009F0B8CAC95DDE4F1983088350
:10F1B000C752D140C75DDE4FF982E882C952D140C3
:10F1C0001B0144248981833109F409C18431C8F4C5
:10F1D000863009F4CFC0873050F4823009F4FDC086
:10F1E000833009F46AC0813009F046C24FC08131D2
:10F1F00009F470C0823108F0B0C0803109F03CC21F
:10F20000ECC0883109F483C0893150F4853109F4A8
:10F21000E6C0853108F4B2C1863109F02DC2AEC115
:10F220008A3109F467C08A3108F485C08B3109F44A
:10F2300054C08D3109F020C28D81803339F49F8113
:10F240009923A9F09130A9F4E8EA16C0982F907597
:10F2500091F0803519F4E0E0F0E004C0883559F40D
:10F26000E3E0F0E099E090935700E49105C0EEE10F
:10F2700003C0E2E001C0E0E01A821B828C831D82A1
:10F28000EE831F8207E0E02EF12CFBC11A8288E09A
:10F290008B8381E48C8386E58D8382E58E8389E48C
:10F2A0008F8383E5888780E589878FE58A8782E376
:10F2B0008B871BE0E12EF12CE4C1EA81E059E330B9
:10F2C00028F4F0E0E050FE4F808101C080E01A8217
:10F2D0008B833FC04424439480C08D81882321F0D8
:10F2E000813021F488EA03C08EE101C082E01A82F5
:10F2F0008B8308C01A82E1E0F0E089E08093570038
:10F30000E491EB831C82B4E0EB2EF12CBAC18B812B
:10F31000803549F48C81883019F4E2E0F0E005C0D2
:10F32000E0E0F0E002C0E3E0F0E089E08093570025
:10F33000E4911A82E6CF8D81836C99E0E1E0F0E000
:10F34000082E90935700E89507B600FCFDCF1A826F
:10F350001B82A3E0EA2EF12C94C11A82F2E0EF2E78
:10F36000F12CCE5DDE4F188219821A821B82C252A6
:10F37000D14087C18A8190E0A0E0B0E0582F4427B7
:10F38000332722278B8190E0A0E0B0E0DC019927B1
:10F390008827282B392B4A2B5B2B8D8190E0A0E00E
:10F3A000B0E0282B392B4A2B5B2B8C8190E0A0E01E
:10F3B000B0E0BA2FA92F982F8827282B392B4A2B5A
:10F3C0005B2B220F331F441F551FC25EDE4F288365
:10F3D00039834A835B83CE51D1401A824FC13A812F
:10F3E000C65CDE4F3883CA53D140C75CDE4F1882FB
:10F3F000C953D140CB80DD24C75CDE4F48815981A1
:10F40000C953D140C42AD52A833109F07AC0CE5DD0
:10F41000DE4F288139814A815B81C252D140203040
:10F4200060EC360763E0460760E05607F0F483E0DF
:10F43000F90140935B0080935700E89507B600FC04
:10F44000FDCFCE5DDE4F288139814A815B81C2527A
:10F45000D14020503F4F4F4F5F4FCE5DDE4F28834E
:10F4600039834A835B83C252D1408B85DE011D966E
:10F47000C25EDE4F088119812A813B81CE51D14085
:10F4800041E0B601FD0131975081C45CDE4F5883E5
:10F49000CC53D140C55CDE4F1882CB53D14090E0B5
:10F4A000C55CDE4FE881F981CB53D1408E2B9F2B79
:10F4B0000C01F80120935B0040935700E89511245C
:10F4C0000E5F1F4F2F4F3F4F6250704019F08C91CD
:10F4D0001296D8CF85E0C25EDE4F488159816A819D
:10F4E0007B81CE51D140FA0160935B00809357003D
:10F4F000E89507B600FCFDCF81E180935700E895C1
:10F5000033C0C25EDE4F88809980AA80BB80CE5116
:10F51000D140B694A7949794879400E010E02BE034
:10F52000E22EF12CEC0EFD1E0AC0D7016D917D017B
:10F53000C801880D991D0F943CFC0F5F1F4F0C15DF
:10F540001D0599F720E030E0000F111F221F331F27
:10F55000C25EDE4F488159816A817B81CE51D140A4
:10F56000040F151F261F371F1A82C25EDE4F088345
:10F5700019832A833B83CE51D14080C05A81C25C1B
:10F58000DE4F5883CE53D140C35CDE4F1882CD533B
:10F59000D1402B8130E0C35CDE4F68817981CD534F
:10F5A000D140262B372BB3E0EB2EF12CE20EF31ECD
:10F5B0001A82843119F5DE011396C25EDE4F48814E
:10F5C00059816A817B81CE51D1406BBFFA0187910D
:10F5D00096918C9311969C93119712964E5F5F4F64
:10F5E0006F4F7F4F2250304081F7C25EDE4F48831D
:10F5F00059836A837B83CE51D1403CC0F901C25EFE
:10F60000DE4F488159816A817B81CE51D1408E0184
:10F610000D5F1F4F41BDBB27A72F962F852F82BDA2
:10F620004F5F5F4F6F4F7F4FF89A80B5D8018D9332
:10F630008D01319779F7C9010197A0E0B0E00196FB
:10F64000A11DB11DC25EDE4F488159816A817B8157
:10F65000CE51D140480F591F6A1F7B1FC25EDE4F3B
:10F66000488359836A837B83CE51D140DE01139650
:10F67000A20FB31F1C9205C080EC8A8332E0E32EF8
:10F68000F12C8BE10F94DEF1CA5DDE4F8881C6520A
:10F69000D1400F94DEF18F2D0F94DEF18E2D0F945B
:10F6A000DEF18EE00F94DEF125E1C22ECA5DDE4F61
:10F6B0002881C652D140C226CE24CF244E010894C0
:10F6C000811C911C0AC0D4011D914D01812F0F9402
:10F6D000DEF1C1260894E108F108E114F10499F77C
:10F6E0008C2D0F94DEF1CA5DDE4F2881C652D140C9
:10F6F0002F5FCA5DDE4F2883C652D1408BB1805840
:10F700008BB9442009F048C080E090E033C0C75D69
:10F71000DE4F19821882C952D140EE24FF242224E0
:10F72000CC24C95DDE4F19821882C752D140CE5D0C
:10F73000DE4F188219821A821B82C252D140C25EE9
:10F74000DE4F188219821A821B82CE51D14020E0EE
:10F7500030E0A9014BBFF90147915691C15CDE4FE2
:10F7600059834883CF53D140CA5DDE4F2882C652A9
:10F77000D140170140E050E020E0C95DDE4F088134
:10F780001981C752D140C75DDE4FE880F980C95268
:10F79000D140B1010D948EF357985F9884E690E0C4
:10F7A0000F94EAF100008091C0008D7F8093C0002B
:10F7B00081E180935700E895EE27FF270994FFCF5A
:10F7C0009BE1C92E21E00D948CF320E00D948CF385
:10F7D00026E00D948CF397FB092E07260AD077FDBF
:10F7E00004D02ED006D000201AF4709561957F4F7A
:10F7F0000895F6F7909581959F4F0895A1E21A2EEE
:10F80000AA1BBB1BFD010DC0AA1FBB1FEE1FFF1FC4
:10F81000A217B307E407F50720F0A21BB30BE40B14
:10F82000F50B661F771F881F991F1A9469F760955B
:10F830007095809590959B01AC01BD01CF01089515
:10F84000AA1BBB1B51E107C0AA1FBB1FA617B70706
:10F8500010F0A61BB70B881F991F5A95A9F7809522
:10F860009095BC01CD010895F999FECF92BD81BD5F
:10F87000F89A992780B50895262FF999FECF1FBAD7
:10F8800092BD81BD20BD0FB6F894FA9AF99A0FBEC9
:08F8900001960895F894FFCFE2
:04F898000F020A0051
:040000033000E000E9
:00000001FF
